{
  "_format": "hh-sol-artifact-1",
  "contractName": "DonationContract",
  "sourceName": "contracts/Donation.sol",
  "abi": [
    {
      "inputs": [],
      "stateMutability": "nonpayable",
      "type": "constructor"
    },
    {
      "inputs": [],
      "name": "getDonations",
      "outputs": [
        {
          "components": [
            {
              "internalType": "address",
              "name": "donor",
              "type": "address"
            },
            {
              "internalType": "uint256",
              "name": "amount",
              "type": "uint256"
            }
          ],
          "internalType": "struct DonationContract.Donation[]",
          "name": "",
          "type": "tuple[]"
        }
      ],
      "stateMutability": "view",
      "type": "function"
    },
    {
      "inputs": [],
      "name": "getTotalDonations",
      "outputs": [
        {
          "internalType": "uint256",
          "name": "",
          "type": "uint256"
        }
      ],
      "stateMutability": "view",
      "type": "function"
    },
    {
      "stateMutability": "payable",
      "type": "receive"
    }
  ],
  "bytecode": "0x608060405234801561001057600080fd5b50336000806101000a81548173ffffffffffffffffffffffffffffffffffffffff021916908373ffffffffffffffffffffffffffffffffffffffff1602179055506104d1806100606000396000f3fe60806040526004361061002d5760003560e01c8063777c658f14610173578063e25f84161461019e5761016e565b3661016e5760405180604001604052803373ffffffffffffffffffffffffffffffffffffffff16815260200134815250600260008201518160000160006101000a81548173ffffffffffffffffffffffffffffffffffffffff021916908373ffffffffffffffffffffffffffffffffffffffff160217905550602082015181600101559050506004600290806001815401808255809150506001900390600052602060002090600202016000909190919091506000820160009054906101000a900473ffffffffffffffffffffffffffffffffffffffff168160000160006101000a81548173ffffffffffffffffffffffffffffffffffffffff021916908373ffffffffffffffffffffffffffffffffffffffff160217905550600182015481600101555050346001600082825461016591906103da565b92505081905550005b600080fd5b34801561017f57600080fd5b506101886101c9565b6040516101959190610386565b60405180910390f35b3480156101aa57600080fd5b506101b36101d3565b6040516101c09190610364565b60405180910390f35b6000600154905090565b60606004805480602002602001604051908101604052809291908181526020016000905b8282101561028957838290600052602060002090600202016040518060400160405290816000820160009054906101000a900473ffffffffffffffffffffffffffffffffffffffff1673ffffffffffffffffffffffffffffffffffffffff1673ffffffffffffffffffffffffffffffffffffffff168152602001600182015481525050815260200190600101906101f7565b50505050905090565b600061029e8383610317565b60408301905092915050565b6102b381610430565b82525050565b60006102c4826103b1565b6102ce81856103c9565b93506102d9836103a1565b8060005b8381101561030a5781516102f18882610292565b97506102fc836103bc565b9250506001810190506102dd565b5085935050505092915050565b60408201600082015161032d60008501826102aa565b5060208201516103406020850182610346565b50505050565b61034f81610462565b82525050565b61035e81610462565b82525050565b6000602082019050818103600083015261037e81846102b9565b905092915050565b600060208201905061039b6000830184610355565b92915050565b6000819050602082019050919050565b600081519050919050565b6000602082019050919050565b600082825260208201905092915050565b60006103e582610462565b91506103f083610462565b9250827fffffffffffffffffffffffffffffffffffffffffffffffffffffffffffffffff038211156104255761042461046c565b5b828201905092915050565b600061043b82610442565b9050919050565b600073ffffffffffffffffffffffffffffffffffffffff82169050919050565b6000819050919050565b7f4e487b7100000000000000000000000000000000000000000000000000000000600052601160045260246000fdfea264697066735822122068b65fa04529a1d7260ce374d2498b014196153b96e2d1b533fa81462f3b837964736f6c63430008000033",
  "linkReferences": {},
  "deployedLinkReferences": {}
}